:100000000C942A000C9434000C9434000C943400AA
:100010000C9434000C9434000C9434000C94340090
:100020000C9434000C9434000C9434000C94340080
:100030000C9434000C9434000C9434000C94340070
:100040000C9434000C9434000C9434000C94340060
:100050000C94340011241FBECFE5D8E0DEBFCDBF25
:100060000E9436000C9465010C940000CF93DF933E
:1000700000D0CDB7DEB719821A8241E061E083E09B
:100080000E94880040E062E083E00E94880040E037
:1000900061E080E00E94880040E060E181E00E9431
:1000A000880040E060E281E00E94880041E060E476
:1000B00081E00E94880040E060E881E00E948800C2
:1000C00087E690E00E94570125E040E060E080E193
:1000D0000E943101CE0101960E945F0140E061E083
:1000E00080E00E94F100BE016E5F7F4F89810E9417
:1000F000470141E061E080E00E94F1002FEF80E7DE
:1001000092E0215080409040E1F700C00000E2CF33
:100110008130F9F030F08230A1F1833009F449C028
:100120000895413041F018F0423051F008958AB3FB
:10013000682B6ABB08958AB3609568236ABB0895EB
:100140008AB3962F909589238ABB8BB3682B6BBBA0
:100150000895413041F018F0423051F0089587B3CE
:10016000682B67BB089587B36095682367BB0895C4
:1001700087B3962F9095892387BB88B3682B68BB7C
:100180000895413041F018F0423051F0089584B3A1
:10019000682B64BB089584B36095682364BB08959D
:1001A00084B3962F9095892384BB85B3682B65BB58
:1001B0000895413041F018F0423051F0089581B374
:1001C000682B61BB089581B36095682361BB089576
:1001D00081B3962F9095892381BB82B3682B62BB34
:1001E00008958130A1F028F08230F9F0833059F180
:1001F0000895442319F0413031F008958BB3609590
:1002000068236BBB08958BB3682B6BBB08954423A5
:1002100019F0413031F0089588B36095682368BBC8
:10022000089588B3682B68BB0895442319F04130C2
:1002300031F0089585B36095682365BB089585B353
:10024000682B65BB0895442319F0413031F00895BF
:1002500082B36095682362BB089582B3682B62BB4A
:1002600008951DB820FD04C09EB191609EB903C0E1
:100270009EB19E7F9EB950E0440F551F440F551FFD
:10028000682B462B2695242B20642DB908958FB911
:1002900080E005C08F5F95E09A95F1F700007799AF
:1002A00002C08233B8F38FB1FB01808308951BB87D
:1002B00028E12AB926E820BD89B990BD08955F9B41
:0E02C00003C02CB1FC0120830895F894FFCFF9
:00000001FF
