S00B00004D43322E7372656357
S11300000C942A000C9434000C9434000C943400A6
S11300100C9434000C9434000C9434000C9434008C
S11300200C9434000C9434000C9434000C9434007C
S11300300C9434000C9434000C9434000C9434006C
S11300400C9434000C9434000C9434000C9434005C
S11300500C94340011241FBECFE5D8E0DEBFCDBF21
S11300600E9436000C9451010C940000CF93DF934E
S11300701F92CDB7DEB7198241E060E181E00E94B2
S11300808B0041E060E281E00E948B0040E060E48C
S113009081E00E948B0041E060E881E00E948B00D7
S11300A040E064E082E00E948B0040E068E083E08E
S11300B00E948B0025E040E060E080E00E94340173
S11300C0BE016F5F7F4F80E00E944A0189818136C3
S11300D019F0823661F015C041E064E082E00E94CC
S11300E0F40040E068E083E00E94F4000AC040E0CD
S11300F064E082E00E94F40041E068E083E00E9452
S1130100F4002FEF80E792E0215080409040E1F727
S113011000C00000D5CF8130F9F030F08230A1F179
S1130120833009F449C00895413041F018F0423059
S113013051F008958AB3682B6ABB08958AB3609519
S113014068236ABB08958AB3962F909589238ABB46
S11301508BB3682B6BBB0895413041F018F04230EB
S113016051F0089587B3682B67BB089587B36095F2
S1130170682367BB089587B3962F9095892387BB1F
S113018088B3682B68BB0895413041F018F04230C1
S113019051F0089584B3682B64BB089584B36095CB
S11301A0682364BB089584B3962F9095892384BBF8
S11301B085B3682B65BB0895413041F018F0423097
S11301C051F0089581B3682B61BB089581B36095A4
S11301D0682361BB089581B3962F9095892381BBD1
S11301E082B3682B62BB08958130A1F028F082307D
S11301F0F9F0833059F10895442319F0413031F076
S113020008958BB3609568236BBB08958BB3682BFB
S11302106BBB0895442319F0413031F0089588B33D
S11302206095682368BB089588B3682B68BB0895FC
S1130230442319F0413031F0089585B36095682363
S113024065BB089585B3682B65BB0895442319F0F5
S1130250413031F0089582B36095682362BB0895FC
S113026082B3682B62BB08951DB820FD04C09EB103
S113027091609EB903C09EB19E7F9EB950E0440F29
S1130280551F440F551F682B462B2695242B20649D
S11302902DB90895779B04C09FB1FB0190838FB95A
S10902A00895F894FFCF5D
S9030000FC
